:020000040800F2
:100000009846002049300008353000083730000895
:10001000393000083B3000083D3000080000000087
:100020000000000000000000000000003F30000859
:10003000413000080000000043300008453000084F
:100040006330000863300008633000086330000844
:100050006330000863300008633000086330000834
:100060006330000863300008633000086330000824
:1000700063300008633000086FD900089BD900087E
:100080006330000843D90008633000081DCF000822
:100090003BCF00086330000863300008633000087D
:1000A00063300008633000086330000863300008E4
:1000B00063300008633000086330000863300008D4
:1000C00063300008633000086330000863300008C4
:1000D00063300008EDD20008FDD3000801D5000808
:1000E00063300008633000086330000863300008A4
:1000F000633000086330000863300008C7D9000887
:100100006330000863300008633000086330000883
:10011000EBD5000809D7000821D10008633000089A
:100120006330000863300008633000086330000863
:100130006330000863300008633000085FD00008B7
:100140007DD0000863300008633000086330000889
:1001500063300008F3D9000815D9000817D8000843
:100160006330000863300008633000086330000823
:100170006330000863300008633000086330000813
:10018000633000086330000800F002F800F069F8FE
:100190000AA090E8000C82448344AAF10107DA45E2
:1001A00001D100F05EF8AFF2090EBAE80F0013F0CB
:1001B000010F18BFFB1A43F001031847401B010051
:1001C000601B01000A444FF0000C10F8013B13F0D3
:1001D000070408BF10F8014B1D1108BF10F8015BA0
:1001E000641E05D010F8016B641E01F8016BF9D193
:1001F00013F0080F1EBF10F8014BAD1C0C1B09D1EA
:100200006D1E58BF01F801CBFAD505E014F8016B5B
:1002100001F8016B6D1EF9D59142D6D370470000ED
:100220000023002400250026103A28BF78C1FBD8FF
:10023000520728BF30C148BF0B607047662911F0D4
:10024000A082002070471FB511F091FA0EF094F9CA
:1002500004000020002110F01BFBE0601FBD10B562
:1002600010BD0EF08DFA1146FFF7EDFF00F008F813
:100270000EF0ABFA03B4FFF7F2FF03BC0EF0EEFA98
:100280000DF0E2FB05F05AF8FEE70000016C074AAA
:100290001268511A00D54942642903DD002180F813
:1002A00044107047012180F8441070473803002043
:1002B00010B5FB4C03E010F8013B5340E25C491ED3
:1002C0004B1CF8D1104610BD30B505460C46002D2C
:1002D00001D0022C01D8002030BDFF22611E28462B
:1002E000FFF7E6FF291911F8011C814201D1012015
:1002F00030BD002030BD30B505460C46002D09D07C
:10030000022C07D9FF22611E2846FFF7D1FF2919C9
:1003100001F8010C30BD10B503461046002B01D08A
:10032000E04C0AE04FF6FF7010BD13F8012B42407D
:10033000D2B234F8122082EA1020491E4A1CF4D1AD
:1003400010BD30B505460C46002D01D0022C01D859
:10035000002030BDD448A11E02882846FFF7DBFFED
:100360002919C2B211F8023C9A4206D111F8011CB7
:10037000B1EB102F01D1012030BD002030BD30B5D0
:1003800005460C46002D0CD0022C0AD9C648A11EE9
:1003900002882846FFF7BFFF291901F8020D000A5D
:1003A000487030BD002801D0022901D8FF207047D5
:1003B000FF227DE7D0ED010AC0ED020A90ED041A9C
:1003C00080ED051AD0ED001A30EEA12AC0EE821A97
:1003D000C0ED031A30EE412AB0EE410A01EE820A66
:1003E00080ED040AB7EE001A31EE611A61EE200AC0
:1003F000C0ED010A70472DE9F34F83B0824604989F
:10040000092870D90026DFF8A482A74FE1E01AF886
:1004100006000AEB06056978AA7841EA022969799B
:10042000AA7941EA0224E91D0091296801912979FC
:100430008DF8081009F109011FFA81FBA52831D1B7
:10044000052101A8FFF740FF00282BD02846594678
:10045000FFF777FF002825D040F20621A4F20620FE
:100460008C426BD010DC40F20121A4F201208C42BE
:100470003AD004DC012C10D0032C13D113E0012856
:1004800048D003280ED152E001285ED002286ED059
:10049000FB286DD0FD2805D192E04A46834800999B
:1004A0000DF090FD92E081484A460C3000990DF025
:1004B00089FD98F8BA0002280AD0B888788038896F
:1004C000F880B8F82800B880B8F8240038817DE0BA
:1004D000B88878803889F880B8F81A00B880B8F8F9
:1004E0001600388172E078E070484A46353000994D
:1004F0000DF068FD98F83500411E0A2903D8022046
:1005000088F8BA0062E065380A285FD8012088F8C8
:10051000BA005BE065484A46423000990DF052FD52
:10052000B8F83D00B8F84C10401A78814EE05F48AA
:100530004A46623000990DF045FD47E05B484A4667
:100540006B3000990DF03EFD40E058484A466C3053
:1005500000990DF037FDD8F86F005549884208DA48
:100560009FED540A50481830FFF724FF07E019E0C8
:100570001FE000EE100A4C481830FFF71BFFD7EDC4
:10058000050AC7ED040AD8F86F0000EE100A87EDDF
:10059000050AB4EE600AF1EE10FA17D0F868401CB4
:1005A000F86013E041484A46733000990DF00AFDA7
:1005B0000CE03E484A46793000990DF003FD05E015
:1005C0003A484A46A13000990DF0FCFC06EB0B00BE
:1005D00086B20498B0423FF61AAF05B0BDE8F08F7E
:1005E0002DE9FF410F460A9C154605F1090086B228
:1005F0002370A4F801500020E07005212046FFF789
:100600007AFEBDF80000A4F805002A463946E01D30
:100610000DF0D8FC31462046FFF7B1FE04B020466D
:10062000BDE8F081F8B51C46069E02F109039DB2B3
:1006300023460096FFF7D4FFA02C0AD0A52C08D1A2
:100640001D482A463146D0F8DC3501B0BDE8F040FF
:100650001847F8BD15489FED190A194990F836203A
:100660001848022A0BD80968174A914204DDB0EEF7
:10067000000A80ED810A0DE080ED810A0AE0096838
:10068000124A914202DA80ED810A03E09FED100ADE
:1006900080ED810A9FED0F0A80ED820A704700000D
:1006A000861701088618010804000020DC2B0020B2
:1006B000000070410000BC41F81C00206666E63F67
:1006C000D7020020383D00200000A0410000C040BB
:1006D000CDCC2C403333B3BF70B504462DED028B27
:1006E000A07BE17A627B40EA0160217B090441EA58
:1006F0000221084300EE100AB8EEC00ADFED6D0AD1
:100700006D4D80EE201A85ED011A207828706078F2
:100710006870A078E8702079E17840EA012000B2A2
:1007200010F0AFFB9FED658B53EC182B10F0B8F970
:1007300010F0D0F8A860A079617940EA012000B2F9
:1007400010F09FFB53EC182B10F0AAF910F0C2F830
:10075000E860207AE17940EA012000B210F091FBD4
:1007600053EC182B10F09CF910F0B4F82861A07A23
:10077000617A40EA01202883E07BA876607C217CB6
:1007800040EA012000B210F07CFB53EC182B10F073
:1007900087F910F09FF86861A07CA870E07CE8768B
:1007A000207D2877607D6877A07DA877E07DE87759
:1007B000207E85F82000A07E617E40EA012000B204
:1007C00010F05FFB53EC182B10F06AF910F082F870
:1007D0006862207FE17E40EA012000B210F051FB08
:1007E00053EC182B10F05CF910F074F8A862607FDD
:1007F00085F82C00A07F85F82D003248324900682A
:100800004860BDEC028B70BD30B52E482E4B0068A1
:100810005968411AC1F1000001D40A4600E00246BD
:1008200000240125B2F5FA7F01DD1C7000E01D7087
:10083000002900DA0146B1F5FA5F01DD5C7030BDD8
:100840005D7030BD2DE9F00306ADDDF8288095E838
:10085000E010194C303420806180A280A37310EE28
:10086000100AC4F8060010EE900AC4F80A00E573F6
:100870002682A77484F813C014490888A08284F8DB
:10088000168013488268C4F81720D0F8FC21C4F8F9
:100890001B20D0F82003C4F81F00002008800D485A
:1008A00021462322D0F8DC35BDE8F0031847232287
:1008B0000DF088BB00401C46982C00200000000072
:1008C0000000594038030020340000200E000020B2
:1008D00038350020181700202DE9F047CEB0FD482C
:1008E000FD4E90F835003070A6F134014FF4B47924
:1008F000672818D006DC032809D004280BD0052867
:100900001BD10CE0682812D0692816D112E040F201
:1009100003120A8011E04FF482720A800DE040F267
:1009200005120A8009E040F267120A8005E0A1F88A
:10093000009002E040F269120A80E74996F801C08F
:10094000E64FD1E901450623052207F1690807F1C1
:10095000D20ABCF10E0F40D2DFE80CF03F0740781E
:10096000B1E4FDFCFBFAF9F8F7F6DB490F22DB31C5
:100970002FA80DF027FBD8490F2263312BA80DF0CB
:1009800021FBD5490F22543127A80DF060FBD24935
:100990000F22453123A80DF015FBCF490F22363128
:1009A0001FA80DF00FFBCC490F2227311BA80DF01B
:1009B00009FBC9490F22183117A80DF048FB59222D
:1009C000394668460DF0FEFAC4496922103933A849
:1009D0000DF0F8FA33A80FC8A84798E2BE490F22D5
:1009E0009F312FA80DF0EEFA0F22BD492BA80DF074
:1009F000E9FABB490F220F3927A80DF0E3FAB849ED
:100A00000F22A53923A80DF022FBB5490F22B439D6
:100A10001FA80DF0D7FAB0490F2290311BA80DF096
:100A200016FBAD490F22813117A80DF0CBFA5922E0
:100A3000414668460DF0C6FAA8496922593133A8E3
:100A40000DF0C0FA33A80FC8A84760E2A4490F22EE
:100A50001E392FA80DF0B6FAA1490F222D392BA867
:100A60000DF0F5FA9E490F223C3927A80DF0AAFA9D
:100A70009B490F224B3923A80DF0A4FA98490F2265
:100A80000F311FA80DF0E3FA93490F2272311BA812
:100A90000DF098FA90490F22AE3117A80DF092FA96
:100AA0005922514668460DF08DFA8C496922C231AF
:100AB00033A80DF087FA33A80FC8A84727E2864964
:100AC000884D1739322816D2CDE90C130F2201F2C6
:100AD000B51108A80DF076FA1D22294668460DF0DA
:100AE00071FA2D22A5F1100142A80DF06BFA42A86F
:100AF0000FC8A0470BE2CDE90C1379490F221E3134
:100B000008A80DF05FFA1D22294668460DF05AFA32
:100B100074492D22103942A80DF054FA42A80FC88A
:100B2000A047F4E16C496F4D29392D3532281FD289
:100B3000CDE90C120F2201F2E51108A80DF087FA99
:100B40001D222946684607E0A8E16DE133E1FEE099
:100B5000CCE08BE056E022E00DF034FA2D22A5F136
:100B6000100142A80DF02EFA42A80FC8A047CEE10E
:100B7000CDE90C125A490F223C3108A80DF022FA97
:100B80001D22294668460DF01DFA56492D221D31B9
:100B900042A80DF017FA42A80FC8A047B7E14E4986
:100BA000514D3239322816D2CDE90C120F2201F5FF
:100BB000217108A80DF006FA1D22294668460DF09D
:100BC00001FA2D22A5F1100142A80DF0FBF942A86F
:100BD0000FC8A0479BE1CDE90C1241490F22D23149
:100BE00008A80DF0EFF91D22294668460DF0EAF934
:100BF0003D492D22103942A80DF0E4F942A80FC852
:100C0000A04784E13449374D2E395A35322816D25F
:100C1000CDE90C120F2201F2622108A80DF017FA9B
:100C20001D22294668460DF0CDF92D22A5F11001AF
:100C300042A80DF0C7F942A80FC8A04767E1CDE967
:100C40000C1227490F22B43108A80DF0BBF91D2260
:100C5000294668460DF0B6F922492D224A3142A8AC
:100C60000DF0B0F942A80FC8A04750E11A491D4D38
:100C700010398735322816D2CDE90C130F2201F531
:100C8000F57108A80DF09EF91D22294668460DF061
:100C900099F92D22A5F1100142A80DF093F942A86F
:100CA0000FC8A04733E1CDE90C130D490F225A318B
:100CB00008A80DF087F91D22294668460DF082F933
:100CC00008492D22773142A80DF07CF942A80FC8BF
:100CD000A0471CE1DC2B002070000020812E0020AA
:100CE000E1010020BC2F0020CA300020FD49FE4D4C
:100CF000322816D2CDE90C120F2201F21B2108A8CE
:100D00000DF0A5F91D22294668460DF05BF92D224C
:100D1000A5F1100142A80DF055F942A80FC8A0474F
:100D2000F5E0CDE90C120F22F04908A80DF04AF9C0
:100D30001D22294668460DF045F9EB492D22103950
:100D400042A80DF03FF942A80FC8A047DFE0E549EF
:100D5000E54D1A312D35322816D2CDE90C130F226C
:100D600001F21F2108A80DF02DF91D222946684621
:100D70000DF028F92D22A5F1100142A80DF022F95D
:100D800042A80FC8A047C2E0CDE90C13D7490F22F3
:100D90001E3108A80DF016F91D22294668460DF0EF
:100DA00011F9D1492D221D3142A80DF00BF942A8AD
:100DB0000FC8A047ABE0CB490F22EF312FA80DF0B1
:100DC00046F9C8490F22B3312BA80DF040F9C549A7
:100DD0000F22A43127A80DF0F5F8C2490F22C23125
:100DE00023A80DF0EFF8BF490F2286311FA80DF0A0
:100DF000E9F8BC490F2268311BA80DF0E3F8B949A6
:100E00000F224A3117A80DF0DDF8592239466846FD
:100E10000DF0D8F86922B64933A8F4680DF0D2F87D
:100E200033A80FC8A04772E0B0490F2269392FA834
:100E30000DF00DF9AD490F22A5392BA80DF007F9DA
:100E4000AA490F22B43927A80DF0BCF8A7490F22F0
:100E5000C33923A80DF0B6F8A2490F22D1311FA83B
:100E60000DF0B0F89F490F2295311BA80DF0AAF89C
:100E70009C490F22FE3117A80DF0A4F859224146D3
:100E800068460DF09FF89A496922693133A83469A0
:100E90000DF098F833A80FC8A04738E093490F2207
:100EA000D2392FA80DF08EF890490F22E1392BA8E6
:100EB0000DF0CDF88D490F22F03927A80DF082F8FA
:100EC0008A490F22FF3923A80DF07CF887490F22A9
:100ED00096391FA80DF076F884490F2278391BA89F
:100EE0000DF070F881490F22873917A80DF06AF8C4
:100EF0005922514668460DF065F87D496922D23184
:100F000033A874690DF05EF833A80FC8A047708845
:100F1000484502D22830708002E0A0F5B47070809D
:100F20007078401CC0B2707001210D2800D971701A
:100F3000704890F83200002800D071704EB0BDE8C3
:100F4000F0870FB4F0B59FB0DDE934674FF48870D7
:100F5000ADF80400684890F83500ADF80600614827
:100F600011380088ADF80800644C01982060BDF885
:100F70000850A5800F2230A924A80DF068F83A4641
:100F800031460DF19F000DF01DF82D2224A9A01D62
:100F90000DF018F8019844F8330FA5805748A523A1
:100FA000783000903922554940F20130FFF73AFB82
:100FB0001FB0F0BC5DF814FB0FB400B59FB04FF448
:100FC0008270ADF804004C4890F83500ADF806008A
:100FD000444811380088ADF808000F223BA920A82A
:100FE0000DF035F80F223FA90DF18F000CF0EAFF4C
:100FF0000F2243A90DF19E000CF0E4FF0F2247A938
:101000000DF1AD000CF0DEFF0F224BA92FA80DF063
:101010001EF80F224FA90DF1CB000CF0D3FF0F22C9
:1010200053A90DF1DA000CF0CDFF344801990160AD
:10103000BDF808108180692220A9801D0CF0C2FF34
:101040002E48A523783000906F222C4940F20130C1
:10105000FFF7E8FA1FB05DF814FB0FB42DED020B9B
:1010600010B52DED028BA0B0F0EE408AB0EE608A94
:101070004FF48870ADF808001F4890F83500ADF8BF
:101080000A00184811380088ADF80C001B4C029873
:101090002060BDF80C00A0800F2232A926A80CF019
:1010A000D6FF0F2242A926A80CF0D1FF9DF89B0085
:1010B00020F00700801C8DF89B0018EE900A10F0BD
:1010C000E5FA41EC110B0EA153EC112B0DF1A70029
:1010D0000CF030FF2D2226A9A01D0CF073FF9DF807
:1010E000DB000FE04D00002070300020590200208E
:1010F000712E0020E8340020DC2B0020EB2C002097
:101100002566000020F00700801C8DF8DB0018EE3B
:10111000100A10F0BBFA41EC100B53EC102BAFF29D
:1011200020010DF1E7000CF005FF2D2236A904F196
:1011300033000CF047FF04F178000090A5236022F3
:10114000214640F20130FFF76DFA20B0BDEC028B72
:1011500010BC5DF81CFB0FB470B5A0B04FF48270EA
:10116000ADF80800FE4D95F83500ADF80A00FD48D1
:101170000088ADF80C000F223FA924A80CF067FFEF
:101180000F2243A90DF19F000CF01CFF0F2247A96D
:101190000DF1AE000CF016FF0F224BA90DF1BD00B2
:1011A0000CF010FF0F224FA933A80CF050FF0F22B4
:1011B00053A90DF1DB000CF005FF0F2257A90DF12B
:1011C000EA000CF0FFFE9DF8930020F00700801C61
:1011D0008DF893009DF8A20020F00700801C8DF888
:1011E000A2009DF8B10020F00700801C8DF8B1002E
:1011F0009DF8C00020F00700801C8DF8C0009DF80D
:10120000CF0020F00700801C8DF8CF009DF8DE0095
:1012100020F00700801C8DF8DE009DF8ED0020F026
:101220000700801C8DF8ED00CF4C206800EE100AFE
:10123000DFEDCE0AF3EE081A20EE201A81EE210A25
:101240009FEDCB1ABDF8950030EE010ABCEEC00A46
:1012500010EE101A61F3CF10ADF89500E12140F2C5
:101260003B12B1EBD01F04D361F3CF10ADF8950062
:1012700008E04FF49D71B1EBD01F03D262F3CF10A1
:10128000ADF89500206800EE100AB5EEC00AF1EE48
:1012900010FA0CD89DF8940020F03C00001D8DF849
:1012A0009400BDF8950062F3CF10ADF89500216869
:1012B000B04AB148914212DDB04A0169914207D16A
:1012C0009DF8941021F03C0108318DF8941006E04F
:1012D0009DF8941021F03C01091D8DF89410B5F88B
:1012E0004C1000EE101AB5F83D10B8EE400A60EE52
:1012F000200A00EE101AB8EE401A80EE810ADFEDE7
:10130000A00ABDF8A32030EE200ABCEEC00A10EE01
:10131000101A61F38E12ADF8A320BDF8A410872235
:1013200062F3CF11ADF8A410017F01297AD09DF8A6
:10133000A31021F03C01091D8DF8A31090ED010AC6
:10134000DFED900A20EE200ADFED8F0AB5EEC00A2D
:10135000F1EE10FA01D230EE200A8C4910EE100A9C
:10136000B2EE0E1ABDF8B21030EE011ABCEEC11A80
:1013700011EE100A60F38E11ADF8B2109FED841AD1
:10138000844970EE011A11EE900A884201DD30EEB8
:10139000600ABDF8B31030EE010ABCEEC00A10EED0
:1013A000100A60F3CF11ADF8B3107B48017808291B
:1013B0003FD09DF8B21021F03C0118318DF8B210E9
:1013C00090ED260B9FED751B51EC100B53EC112B80
:1013D0000FF0BEFD0FF028FDBDF8C81060F3090145
:1013E000ADF8C810BDF8C910820A62F38C01ADF8DF
:1013F000C910410DBDF8CA0061F34F10ADF8CA0025
:1014000058484FF4E1623430E6210078DFED650A98
:10141000322817D2BDF8C50061F38C00ADF8C500C5
:1014200016E0FFE79DF8A31021F03C018DF8A31012
:1014300084E79DF8B21021F03C0101F114018DF810
:10144000B210BDE7BDF8C50062F38C00ADF8C50071
:1014500055480068A0F2EF10C0F1000000EE100A3D
:10146000B8EEC00A20EE200ABCEEC00A10EE100A48
:10147000BDF8D73060F30903ADF8D730BDF8D830E8
:101480004FEA902666F38C03ADF8D8304FEA5053FC
:10149000BDF8D90063F34F10ADF8D90006D2BDF8FE
:1014A000D40061F38C00ADF8D40005E0BDF8D400A1
:1014B00062F38C00ADF8D40095F8360000EE100A07
:1014C000B8EE400A20EE200ABCEEC00A10EE100A68
:1014D000BDF8E63060F30903ADF8E630BDF8E7305B
:1014E0004FEA902565F38C03ADF8E7304FEA50538F
:1014F000BDF8E80063F34F10ADF8E80006D2BDF880
:10150000E30061F38C00ADF8E30005E0BDF8E30013
:1015100062F38C00ADF8E300206800EE100A20EEC4
:10152000200ABCEEC00A10EE100ABDF8F51060F3F8
:101530000901ADF8F510BDF8F6104FEA902262F3FC
:101540008C01ADF8F6104FEA5051BDF8F70061F389
:101550004F10ADF8F70015480299016028E000002F
:10156000DC2B00203C000020D70200200000B44209
:10157000000061430000A040982C002000002040A3
:1015800000003442E12E65420000B44300003443C1
:101590000080AC430000B443383500200000000058
:1015A00000408F4000007A4410000020EB2C002007
:1015B000BDF80C1081804FF0690224A900F10600EB
:1015C0000CF000FDFE480090A0F17801A5236F22E9
:1015D00040F20130FFF726F820B070BC5DF814FB34
:1015E0000FB42DE9F047A0B04FF48270ADF80800B9
:1015F000F44890F83500ADF80A00F3480088ADF8DB
:101600000C000F2243A928A80CF021FD0F2247A9A6
:101610000DF1AF000CF0D6FC0F224BA90DF1BE006E
:101620000CF0D0FC0F224FA90DF1CD000CF0CAFC3C
:101630000F2253A937A80CF00AFD0F2257A90DF16C
:10164000EB000CF0BFFC0F225BA90DF1FA000CF0CF
:10165000B9FC9DF8A30020F00700801C8DF8A300C2
:101660009DF8B20020F00700801C8DF8B2009DF8B4
:10167000C10020F00700801C8DF8C1009DF8D0004B
:1016800020F00700801C8DF8D0009DF8DF0020F0CE
:101690000700801C8DF8DF009DF8EE0020F00700A9
:1016A000801C8DF8EE009DF8FD0020F00700801CE6
:1016B0008DF8FD00C54A4EF20303107F012813D0B8
:1016C000BDF8E4001840ADF8E4009DF8E50000F036
:1016D0001F00ADF8E500D07F032838D078B301288B
:1016E00026D002282CD032E092F82D00012817D005
:1016F0009DF8A40020F03C00001D8DF8A400BDF86A
:10170000A80040F2B63161F38C00ADF8A800BDF836
:10171000A9004FF4F97161F34F10ADF8A900DAE7B1
:101720009DF8A40020F03C001C308DF8A400E6E7F2
:101730009DF8B30020F03C0020308DF8B30006E0A7
:101740009DF8B30020F03C0008308DF8B300A048AD
:1017500090ED000A5FED6D0A60EE200AFCEEE00AF3
:1017600010EE900ABDF8C91060F30901ADF8C91078
:10177000BDF8CA10840A64F38C01ADF8CA10410D9B
:10178000BDF8CB0061F34F10ADF8CB009148007865
:10179000012811D010EE100AB0F17E5F04DD10EECA
:1017A000100A8D4988420FDD9DF8C20020F03C00F0
:1017B0001C308DF8C2000EE09DF8C20020F03C0005
:1017C00018308DF8C20006E09DF8C20020F03C0001
:1017D00008308DF8C2007C4840F28A2634304FF43D
:1017E000487700784FF4E17C4FF4AF784FF4DC7425
:1017F00040F252314FF4B969322820D2BDF8D550A9
:1018000064F38C05ADF8D550BDF8D65061F34F1593
:10181000ADF8D650BDF8D9504FF4027A6AF38C0572
:10182000ADF8D950BDF8DA5066F34F15ADF8DA507F
:101830009DF8D15025F03C058DF8D15021E0BDF840
:10184000D5504FF4AF6A6AF38C05ADF8D550BDF8AA
:10185000D65066F34F15ADF8D650BDF8D95069F3A0
:101860008C05ADF8D950BDF8DA5061F34F15ADF8DD
:10187000DA509DF8D15025F03C0505F118058DF89A
:10188000D15020D2BDF8E45064F38C05ADF8E4509B
:10189000BDF8E54061F34F14ADF8E540BDF8E81040
:1018A0004FF4F07464F38C01ADF8E810BDF8E91062
:1018B00067F34F11ADF8E9109DF8E01021F03C01FD
:1018C0008DF8E01021E0BDF8E44069F38C04ADF838
:1018D000E440BDF8E54061F34F14ADF8E540BDF8D4
:1018E000E8104FF4B46464F38C01ADF8E810BDF86F
:1018F000E91067F34F11ADF8E9109DF8E01021F001
:101900003C0101F118018DF8E01022D2BDF8F3106E
:101910004FF4C36464F38C01ADF8F310BDF8F41018
:101920006CF34F11ADF8F410BDF8F7104FF4BE642E
:1019300064F38C01ADF8F710BDF8F81068F34F119F
:10194000ADF8F8109DF8EF1021F03C018DF8EF1084
:1019500023E0BDF8F3104FF4DC6464F38C01ADF8C0
:10196000F310BDF8F4106CF34F11ADF8F410BDF89E
:10197000F7104FF4E16464F38C01ADF8F710BDF893
:10198000F81068F34F11ADF8F8109DF8EF1021F042
:101990003C0101F118018DF8EF1010490978012977
:1019A00036D0BDF802011840ADF802019DF80301E0
:1019B00000F01F00ADF803010148029978380FE0EC
:1019C000632D0020DC2B00203C000020982C002000
:1019D000000000204A0300203333F33F340000208E
:1019E0000160BDF80C108180692228A9801D0CF0CF
:1019F000E9FAD3480090A0F17801A5236F2240F2C4
:101A00000130FEF70FFE20B0BDE8F0075DF814FBD3
:101A1000CC4991F84432B3B191F8C41299B192F81B
:101A20002C10012907D09DF8FE1021F03C0108314F
:101A30008DF8FE100EE09DF8FE1021F03C011031F3
:101A40008DF8FE1006E09DF8FE1021F03C011C31DF
:101A50008DF8FE10322808D2BDF8020140F25E6116
:101A600061F38C00ADF8020106E0BDF80201BE2171
:101A700061F38C00ADF80201B3488178012911D0DF
:101A80009178012917D0917E01291DD00078022874
:101A900023D0BDF803014FF4237161F34F10ADF86B
:101AA000030189E7BDF8030140F2AA2161F34F1059
:101AB000ADF8030180E7BDF8030140F26E2161F348
:101AC0004F10ADF8030177E7BDF803014FF414712F
:101AD00061F34F10ADF803016EE7BDF803014FF459
:101AE0000C7161F34F10ADF8030165E70FB400B559
:101AF0009FB04FF48270ADF80400944890F8350020
:101B0000ADF8060092480088ADF808000F223BA906
:101B100020A80CF09CFA0F223FA90DF18F000CF0C9
:101B200051FA0F2243A90DF19E000CF04BFA0F223F
:101B300047A90DF1AD000CF045FA0F224BA92FA8D3
:101B40000CF085FA0F224FA90DF1CB000CF03AFAF8
:101B50000F2253A90DF1DA000CF034FA9DF883003E
:101B600020F00700801C8DF883009DF8920020F083
:101B70000700801C8DF892009DF8A10020F007005E
:101B8000801C8DF8A1009DF8B00020F00700801C9B
:101B90008DF8B0009DF8BF0020F00700801C8DF884
:101BA000BF009DF8CE0020F00700801C8DF8CE000D
:101BB0009DF8DD0020F00700801C8DF8DD006248F4
:101BC000807801282BD0BDF888104EF20300014028
:101BD000ADF888109DF8891001F01F01ADF889104B
:101BE000BDF897100140ADF89710BDF8980000F0CF
:101BF0001F00ADF89800564834300078322847D29C
:101C0000BDF8A60040F2EE5161F38C00ADF8A600DD
:101C10009DF8A20020F03C008DF8A20047E0BDF83E
:101C200088004FF4707262F38C00ADF88800BDF844
:101C300089104FF44D7060F34F11ADF88910BDF865
:101C40008C1040F24C4363F38C01ADF88C10BDF85E
:101C50008D304FF43E7161F34F13ADF88D30BDF808
:101C6000973062F38C03ADF89730BDF8982060F39D
:101C70004F12ADF89820BDF89B2060F38C02ADF8B0
:101C80009B20BDF89C0061F34F10ADF89C00B2E7BB
:101C9000BDF8A60040F20A7161F38C00ADF8A60011
:101CA0009DF8A20020F03C0018308DF8A2002448D6
:101CB000019978380160BDF808108180692220A957
:101CC000801D0CF07FF91E480090A0F17801A5233B
:101CD0006F2240F20130FEF7A5FC1FB05DF814FB47
:101CE00008B51A4A642192F83500B0FBF1F301FB04
:101CF0001303174903F5007317310B80488032280E
:101D000002D20620888001E06A2088800C481049B1
:101D1000883017310B68C0F80E3089884182084935
:101D2000B2F8730096318871000AC87104480090B7
:101D3000A523082240F20130FEF774FC08BD000024
:101D4000632D0020B828002038350020DC2B00202F
:101D50003C000020012101703949B1F84A2042803D
:101D6000B1F83F108180374902680A608088888016
:101D700035486422D0F8DC35184722220CF022B90D
:101D80000A68A2F22312062A09D2DFE802F0030948
:101D90000F151B2151F80B2F0260496841607047F5
:101DA00051F80B2F82604968C160704751F80B2FC2
:101DB000026149684161704751F80B2F826149689F
:101DC000C161704751F80B2F026249684162704748
:101DD00051F80B2F82624968C162704710B586B016
:101DE000174A92F841309C074FF0000303D5174C77
:101DF000E47E012C20D00B70B2F84A404C80B2F83F
:101E00003F208A800F4A0C6814608C8894804FF4BD
:101E1000807201928DF80C308DF80D3008228DF80B
:101E20000E200A68CDF80F208988ADF8131001A99B
:101E300001F0E8FA06B010BD01240C70DCE70000E8
:101E4000DC2B0020E7300020580B0020982C0020CD
:101E500030B58378C47843EA042414800379457943
:101E600043EA052353808379C57943EA05231BB2EE
:101E70009380007A107300EE103AB4EE001AF8EE78
:101E8000C00A9FED140A10EE810A82ED020A00EEEC
:101E9000104ADFED110AB8EE400A80EE201A81EDFB
:101EA000001A0E480E490068486030BD0B480C49C6
:101EB00000684A68801A00D54042B0F5FA7F03DC1A
:101EC00008484088642802D200200870704701202A
:101ED00008707047000080430000C84238030020AB
:101EE000DC0200204C3100200168A1290AD0A2297F
:101EF0000CD0A3290FD0A42911D18A4A40F60D1184
:101F000000F0C6BC884A894900F0C2BC884A41F644
:101F1000485100F0BDBC874A874900F0B9BC704702
:101F20000168A1F50071013905D0012908D10146E8
:101F3000824800F04EBA01468048803800F049BA25
:101F40007047F0B52DED028B81B07D4890F84412BA
:101F50009FED7C8A7C4F002958D090F8C40200285D
:101F600054D07A487A4E00250078D0B3794C94ED5D
:101F70008A0B51EC100B0EF0ADFC00EE100A0121A3
:101F8000384600F06AFD94ED840B51EC100B0EF016
:101F9000A1FC00EE100A0421384600F05EFD94ED2D
:101FA0008E0B9FED6D8B51EC100B53EC182B0EF03C
:101FB000CFFF0EF009FF94ED8C0B07B253EC182BFA
:101FC00051EC100B0EF0C4FF0EF0FEFE01B2002328
:101FD0003A463046009500F075FA01B0BDEC028B30
:101FE000F0BDFFE7B0EE480A0121384600F035FDAC
:101FF000B0EE480A0421384600F02FFD00231A46AF
:1020000019463046009500F05DFAE6E7B0EE480A62
:102010000121384600F021FD01B0B0EE480ABDECC8
:10202000028B3846BDE8F040042100F016BD70B5C3
:102030002DED028B424890F844129FED428A424DAA
:10204000002932D090F8C40278B340480078E0B15B
:10205000404C94ED880B51EC100B0EF03BFC00EE65
:10206000100A0221284600F0F8FC94ED860B51EC92
:10207000100B0EF02FFC00EE100ABDEC028B284670
:10208000BDE87040032100F0E8BCB0EE480A022130
:10209000284600F0E2FCB0EE480ABDEC028B284670
:1020A000BDE87040032100F0D8BCB0EE480A022120
:1020B000284600F0D2FCB0EE480ABDEC028B284660
:1020C000BDE87040032100F0C8BC10B52DED028BB7
:1020D00004219FED1C8A1C4CB0EE480A204600F0FB
:1020E000BCFCB0EE480ABDEC028B2046BDE81040B7
:1020F000012100F0B2BC10B52DED028B02219FED45
:10210000118A114CB0EE480A204600F0A6FCB0EE51
:10211000480ABDEC028B2046BDE81040032100F0C8
:102120009CBC000018340020A83100209CE7FFFF71
:102130007832002048330020B6E9FFFF382B00201A
:10214000B82800200000000000640040383500205E
:1021500000680040383D00206666666666E8A74075
:102160000A7BC97A42EA01218161816981608169C2
:1021700041600169491C016170472DE9F041044645
:102180002DED048B0E4600250027F64800682064DC
:1021900020686060307BF17A40EA0120206020688E
:1021A0006168401AE060E06810F5805F07DAA06BB4
:1021B000401CA063E06800F50050E0610DE0E068BD
:1021C000B0F5805F07DDA06B401EA063E068A0F55E
:1021D0000050E06101E0E068E0612068A16B00EB85
:1021E0004130A0602068A169401A00EE100AA06B7F
:1021F000F8EEC00A4FF4B471484300EE100AB8EE8E
:10220000C00A9FEDD98A00EE880A10EE100A0FF07E
:102210003DFA41EC100B84ED140B2068A169401AC3
:1022200000EE100AB8EEC00A20EE080A9FEDCF9A21
:1022300060EE090A9FEDCE1AA06B80EE810A400085
:1022400000EE900AF8EEE00A00EE890A10EE100A9D
:102250000FF01CFA9FEDC78B53EC182B0EF020FCEF
:1022600041EC100B84ED180BE269207D411C2175B7
:1022700004EB80000262207D062801D10020207539
:1022800004EB8500006A07446D1C062DF8DB062070
:1022900097FBF0F00EF0F5FD53EC182B0EF000FC60
:1022A0000EF092FD44F8480FB07B717B40EA0120AC
:1022B0002082B4F91000400000EE100AB8EEC00A07
:1022C00060EE090A9FEDAD1A80EE810A10EE100A49
:1022D0000FF0DCF953EC182B0EF0E2FB41EC100B85
:1022E00084ED080B307CF17B40EA01202063206BF9
:1022F0000EF0C7FD9FEDA21B53EC112B0EF028FE34
:102300000EF0E8FA00EE100A84ED0A0ABDEC048B28
:10231000BDE8F08170B504460D4620686060287BFA
:10232000E97A40EA0120206020686168401AE06094
:10233000E06810F5805F07DAA06B401CA063E068DE
:1023400000F50050E0610DE0E068B0F5805F07DD6A
:10235000A06B401EA063E068A0F50050E06101E0C2
:10236000E068E0612068A16B00EB4130A06020686C
:10237000A169401A00EE100AA06BF8EEC00A4FF4F3
:10238000B471484300EE100AB8EEC00A9FED7E1A01
:1023900000EE810A10EE100A0FF078F941EC100BF4
:1023A00084ED140BA87B697B40EA0120A064A06C3B
:1023B000B0F57A7F04DBA06CA0F57F40FF38A06405
:1023C000687C6067A87B697B40EA0120A4F858001C
:1023D00070BDC26B521CC263C26B052A00DCBFE633
:1023E000CBE670B504461546E06B401CE063E06B3D
:1023F000022800DCA5612046FFF78CFFE06B0A286D
:1024000008DCA069A168401A10F57A6F03DA05F5B7
:102410000055A56170BDA069A168401AB0F57A6F3A
:10242000F8DDA5F50055A56170BD30B585B0089CF7
:1024300040F2FF15009500258DF808508DF80950E1
:1024400008258DF80A500D0A8DF80B508DF80C10E8
:10245000110A8DF80D108DF80E20190A8DF80F1045
:102460008DF81030210A8DF811108DF81240694650
:1024700000F0C8FF05B030BD30B585B0089C40F213
:10248000FF25009500258DF808508DF80950082586
:102490008DF80A500D0A8DF80B508DF80C10110AAA
:1024A0008DF80D108DF80E20190A8DF80F108DF88B
:1024B0001030210A8DF811108DF81240694600F095
:1024C000A1FFD7E730B585B0089C304D29806A80E0
:1024D0004FF40075009500258DF808508DF80950CF
:1024E00008258DF80A500D0A8DF80B508DF80C1048
:1024F000110A8DF80D108DF80E20190A8DF80F10A5
:102500008DF81030210A8DF811108DF812406946AF
:1025100000F078FFAEE730B585B0089C40F2FF15BB
:10252000009500258DF808508DF8095008258DF884
:102530000A500D0A8DF80B508DF80C10110A8DF809
:102540000D108DF80E20190A8DF80F108DF810302F
:10255000210A8DF811108DF81240694600F052FFE3
:1025600088E7000038030020FFFF333DDB0F4940C0
:1025700000003443E17A14AE47E12B400000704282
:102580003C4ACA822E86CF3F0000343DE402002040
:1025900070B50C462DED068B811D4C227E480BF04C
:1025A00011FD7D4DF1EE000A95ED0D0A30EE600A49
:1025B00084ED000A794890ED010A80ED000A95ED5E
:1025C0000E0A80ED010A90ED010AD0ED000A744A6E
:1025D00030EE600A10EE101A914203DB8168491E4A
:1025E00081600DE090ED010AD0ED000A6D4A30EEF9
:1025F000600A10EE101A914202D38168491C816072
:1026000081684FF4B472514300EE101AD0ED010A04
:10261000B8EEC00A30EE200AB1EE400A84ED010A9D
:102620009FED619A20EE090A10EE100A0FF02EF8C5
:102630009FED5E8B53EC182B0EF032FA0EF04AF938
:102640000FF024F841EC100B9FED5A1B0DF08AFAA5
:1026500051EC100B0EF03EF900EE100AB5EEC00A78
:10266000F1EE10FA03D2DFED550A30EE200A84EDC8
:10267000010A95ED0C0ADFED520A30EE600A84ED96
:10268000020A95ED060A84ED030A95ED080AB1EEFB
:10269000400A84ED040A95ED070A84ED050A95EDDC
:1026A0000C0A20EE090A10EE100A0EF0EFFF53ECB0
:1026B000182B0EF0F5F90EF00DF900EE100A0DF0E2
:1026C0009FF9F0EE409A95ED0D0A20EE090A10EE02
:1026D000100A0EF0DBFF53EC182B0EF0E1F90EF0B0
:1026E000F9F800EE100A0DF08BF9F0EE400A95EDC6
:1026F000050A09EEE00ADFED339A20EE290A84ED9F
:10270000060A95ED0D0A20EE090A10EE100A0EF0E9
:10271000BDFF53EC182B0EF0C3F90EF0DBF800EE02
:10272000100A0DF0A1FAD5ED040A30EEC00A20EE31
:10273000290A84ED070A95ED0C0A20EE090A10EE2D
:10274000100A0EF0A3FF53EC182B0EF0A9F90EF0AF
:10275000C1F800EE100A0DF087FAB0EE40AA95ED30
:102760000D0A60EE090A10EE900A0EF08FFF53EC8E
:10277000182B0EF095F90EF0ADF800EE100A0DF0E2
:102780003FF9D5ED030A4AEE000A20EEA90A84EDCE
:10279000080ABDEC068B70BD5C310020E802002009
:1027A0000000A2430000A2C3DB0F4940000000006C
:1027B0000080664000000060FB211940DB0FC9402B
:1027C0003333933FC3F51C4131EE601A0121814040
:1027D00070EE600A491E00EE101AB8EEC00A20EE34
:1027E000800AC0EE010ABDEEE00A10EE100A704742
:1027F00010B586B00446019100208DF80C008DF8CC
:102800000D0008208DF80E00FF208DF80F008DF8C8
:1028100010008DF811008DF812008DF813008DF85E
:1028200014008DF81500FC208DF81600B2480168E0
:1028300011F0E05FFBD0B04801A9083800F0E2FDDC
:102840000146204600F039FE06B010BD00B585B047
:10285000009100218DF808108DF8091008218DF8DD
:102860000A10FF218DF80B108DF80C108DF80D104B
:102870008DF80E108DF80F108DF810108DF81110C6
:10288000FD218DF81210694600F0BCFD05B000BDB9
:102890002DE9F04105462DED048B0E461446D4F883
:1028A0008C8008F10108C4F88C8094480068C4F852
:1028B0009000B8F1050F00DCA6660020A070E87A51
:1028C0000009082801D10121A170092801D10221A4
:1028D000A1700A2801D10321A1700B2801D1042184
:1028E000A1700C2801D10521A1700D2801D106216C
:1028F000A1700E2801D10720A070687B297B40EAD7
:1029000001207F4901FA80F007B22781A87BE97B8B
:10291000000140EA1110A0F2FF700EF0B2FA9FED34
:10292000791B53EC112B0EF013FB0DF0D3FF09EEC6
:10293000900AC4ED089AE97B287C01F00F0140EA77
:102940000120A0F2FF700EF09CFA9FED701B53EC7B
:10295000112B0EF0FDFA0DF0BDFFA062687C6086C1
:10296000A87CA086B3EE0E0A29EE800ADFED690A84
:1029700080EE201ABDEEC10A10EE100A20863846FD
:102980000EF07FFA9FED641B53EC112B0EF0E0FA72
:102990000DF0A0FF09EE100A84ED059A94ED070AE8
:1029A0005F4930EE490A10EE100A884202DDE08EDF
:1029B000401CE08610EE100A5A49884202D9E08E87
:1029C000401EE086A56E4FF4B461781B00EE100A3D
:1029D000E08EF8EEC00A10FB01F000EE100AB8EE2F
:1029E000C00A9FED511A00EE810A10EE100A0EF097
:1029F0004DFE41EC180B84ED288B683419EE900ADB
:102A00000EF044FEC4E914019FED480B51EC180B85
:102A100053EC102B0EF09CFA9FED461B53EC112B40
:102A20000EF03EF8C4E9120104ED139A683CB8F1C7
:102A3000140F07DCA06D281A10F5004F06DC06F510
:102A40008036A666BDEC048BBDE8F081B0F5004F82
:102A5000F8DBA6F58036A666F4E710B586B0034627
:102A6000019100228DF80C208DF80D2008208DF8A2
:102A70000E000C209FED311ADFED310AFFF7A4FEA6
:102A80007F218DF80F10FF248DF810408DF8111064
:102A9000F0218DF812108DF813208DF81420C0F35A
:102AA00003218DF815108DF8160001A9184600F0C5
:102AB000A9FCC9E600B585B0009100218DF8081089
:102AC0008DF8091008218DF80A10FF218DF80B10E0
:102AD0008DF80C108DF80D108DF80E108DF80F106C
:102AE0008DF810108DF81110FE218DF81210694626
:102AF00000F088FCCAE600000864004038030020AB
:102B00000180FFFFE010AAD4EC81963F0000000096
:102B10000000943FDB0F4940C3BB5CC47762963F23
:102B200000003444000034C40000B43C00000060E5
:102B3000FB210940000000000080664000002042A8
:102B4000000020C2002807D0087838B9012008709A
:102B50001078401C107001E0002008701078C00749
:102B600001D00120704700207047C98A014201D07E
:102B7000012000E000201070704700B5034603F10B
:102B8000290219460120FFF7F0FF03F12A02194636
:102B90000420FFF7EAFF03F12B0219460220FFF79A
:102BA000E4FF03F12C0219460820FFF7DEFF03F1D2
:102BB0002D0219461020FFF7D8FF03F12F02194606
:102BC0002020FFF7D2FF03F1300219464020FFF723
:102BD000CCFF03F1310219468020FFF7C6FF03F155
:102BE000320219464FF48070FFF7BFFF03F1330242
:102BF00019464FF40070FFF7B8FF03F1340219468D
:102C00004FF48060FFF7B1FF03F1350219464FF42E
:102C10000060FFF7AAFF03F12E0219464FF480501F
:102C2000FFF7A3FF03F1360219464FF40050FFF7F8
:102C30009CFF03F1370219464FF48040FFF795FFE0
:102C400003F1380219464FF40040FFF78EFF934A14
:102C500013F8290F02F11001FFF774FF18748F4A5F
:102C60005878521C02F11001FFF76CFF58748B4A20
:102C70009878921C02F11001FFF764FF9874874A5C
:102C8000D878D21C02F11001FFF75CFFD874834A98
:102C90001879121D02F11001FFF754FF18757F4AD1
:102CA0009879521D02F11001FFF74CFF98757B4A8D
:102CB000D879921D02F11001FFF744FFD875774AC9
:102CC000187AD21D02F11001FFF73CFF1876734A03
:102CD000587A083202F11001FFF734FF58766F4A34
:102CE000987A093202F11001FFF72CFF98766B4AAF
:102CF000D87A0A3202F11001FFF724FFD876674A2A
:102D0000187B0B3202F11001FFF71CFF1877634AA2
:102D100058790C3202F11001FFF714FF58755F4A21
:102D2000587B0D3202F11001FFF70CFF58775B4A18
:102D3000987B0E3202F11001FFF704FF9877574A93
:102D4000D87B0F3202F11001FFF7FCFED87700BDEF
:102D500010B5827AC276017F891AC9B241770277AB
:102D600000230124012905D1026A521C0262D20704
:102D700003D08477022902D007E08377FAE7416A1B
:102D8000491C4162C90709D0C477B0F90810A1F500
:102D90008061052904DA80F8283010BDC377F4E794
:102DA00080F8284010BD90F90B10012905D00329A7
:102DB00006D0022900D181767047012181767047C3
:102DC00003218176704700B5122954D1002852D0D2
:102DD0000178427841EA0221C1F30A0230490A80AF
:102DE00042788378D20842EA4312C2F30A024A8048
:102DF0008278C378920942EA8302037942EA832205
:102E0000C2F30A028A8002794379520842EAC31265
:102E1000C2F30A02CA80027C437C42EA0322C2F364
:102E20000A020A81427992098A724279C2F3011236
:102E3000CA728279C37942EA03228A81027A437A8A
:102E400042EA0322CA81827AC37A42EA03220A82D0
:102E5000027B0A75427B4A75827BC07B42EA002076
:102E6000C8820846FFF79FFF0D48FFF771FF0C4827
:102E70005DF804EB81E600BD084800210170417057
:102E80008170C170017141718171C17101724172B2
:102E90008172C17201738173C1737047F4020020A3
:102EA000E83400200CB500220192009258490868CD
:102EB00040F4803008604FF4A043086800F400300C
:102EC00000900198401C0190009810B90198984218
:102ED000F3D10868800302D50120009000E0009241
:102EE0000098012831D14A484030026842F08052AF
:102EF00002604848026842F4404202604448083098
:102F000002680260026842F400420260026842F411
:102F1000A0520260021F404B13600A6842F08072A8
:102F20000A600A689201FCD53C4A40F205711160C2
:102F3000016821F003010160016841F002010160B4
:102F40000168C1F381010229FAD10CBD10B53448E2
:102F5000016841F4700101602D48016841F00101F0
:102F600001602B4A00210832116002682D4B1A4083
:102F70000260031D2C4A1A60026822F4802202605B
:102F800023480C300160FFF78DFF25494FF00060AA
:102F90008039086010BD70B51D4E0836306800F0ED
:102FA0000C00224B224900280FD05D1004280ED0BF
:102FB00008280ED00B6030681D4AC0F30310121DA4
:102FC000105C0A68C2400A6070BD0B60F3E70D60D8
:102FD000F1E70F4A121D1068C0F38054106800F02A
:102FE0003F0034B1B5FBF0F01368C3F388135843C6
:102FF00005E0B3FBF0F01368C3F38813584312687D
:10300000C2F30142521C5200B0FBF2F00860D2E75A
:10301000003802400070004008544007003C024065
:1030200088ED00E0FFFFF6FE103000240024F400DD
:10303000140300207047FEE7FEE7FEE7FEE7704757
:1030400070477047704700000948804709480047AB
:10305000FEE7FEE7FEE7FEE7FEE7FEE7FEE7FEE748
:10306000FEE7FEE704480549054A064B70470000A5
:103070004D2F000889010008984000209846002044
:1030800098420020984200202B4908432B490860B1
:10309000704730B50F23C27801250178002A1FD070
:1030A000264A126802F4E062C2F5E062C2F3072227
:1030B000C2F10404D3404278A24084781C401443F7
:1030C000220101F1E02181F80024007800F01F01C5
:1030D0008D404009800000F1E020C0F8005130BD73
:1030E00001F01F0085404809800000F1E020C0F891
:1030F000805130BD124A114001431048001F016049
:1031000070470E4A121D002903D011680143116057
:10311000704711688143116070474FF0E021042827
:1031200004D0086920F0040008617047086940F085
:1031300004000861704700000000FA050CED00E093
:1031400080FFFF1F10B5F74988420AD101214C06C4
:10315000204601F07EF82046BDE81040002101F035
:1031600078B801218C06204601F073F82046BDE8AE
:103170001040002101F06DB810B50022036823F063
:1031800002030360036843F0010303604FF6FF731B
:1031900000E0521C4468E40701D19A42F9D1426828
:1031A000D2073ED08A79012A3DD0026822F08002FF
:1031B0000260CA79012A3BD0026822F04002026014
:1031C0000A7A012A39D0026822F0200202604A7A83
:1031D000012A37D0026822F0100202608A7A012A9E
:1031E00035D0026822F008020260CA7A012A33D080
:1031F000026822F0040202608A78CC78920742EAE0
:1032000004620C7942EA04424C79098842EA045289
:10321000491E0A43C261016821F0010101600021D9
:1032200020E0002010BD026842F080020260C0E78A
:10323000026842F040020260C2E7026842F02002E7
:103240000260C4E7026842F010020260C6E702684A
:1032500042F008020260C8E7026842F0040202601D
:10326000CAE7491C4268D20701D09942F9D14068A7
:10327000C00701D0002010BD012010BDF0B5827A3A
:1032800001219140A84C226842F001022260A64D23
:103290001C352A688A432A60A34A067B0C32A34B5A
:1032A000002E14D116688E4316604688C78846EAF9
:1032B0000746877A03EBC707C7F840660688878802
:1032C00046EA0746877A03EBC707C7F84466067BDA
:1032D000012E14D116680E4316604288068842EA11
:1032E0000642867A03EBC606C6F84026C288868860
:1032F00042EA0642867A03EBC603C3F844268A4AAA
:10330000C37A121D3BB113680B431360864A0389CD
:10331000143223B106E013688B431360F6E7136899
:103320008B4313600389012B02D113680B43136095
:10333000407B012802D1286808432860206820F0DB
:1033400001002060F0BD00218171C17101724172E4
:103350008172C1728170C1700321017102214171BA
:1033600001210180704770490A6842F001020A6039
:103370000A6843F60E739A430A600A6842EA00201C
:103380000860086820F0010008607047002904D038
:10339000016841F4803101607047016821F4803197
:1033A00001607047002916D0016841F0800101607A
:1033B000D0F8841141F48071C0F88411D0F89411D0
:1033C00041F48071C0F89411D0F8A41141F48071D7
:1033D000C0F8A4117047016821F080010160D0F8A5
:1033E000841121F48071C0F88411D0F8941121F473
:1033F0008071C0F89411D0F8A41121F48071C0F844
:10340000A411704730B50246002093685B010AD4CE
:103410009068000101D5012005E09068C00001D549
:10342000022000E0042004283BD002EB0012D2F876
:10343000803103F00103C2F880310B7A93B3D2F8E4
:1034400080414D681C434B7A43EAC5031C43C2F8D4
:1034500080418B7A03F00F038B7202F5C0725368C0
:1034600023F00F03536053688C7A23435360CB7A65
:103470008C7B0D7B43EA04634C7B240444EA0524E3
:1034800023439360CB7B8C7C43EA04634C7C097CB4
:10349000240444EA01210B43D360116841F0010187
:1034A000116030BDFFE7D2F880314C7A23430C889D
:1034B00043EA4453C2F88031CBE70022002904D00C
:1034C000012906D002290BD107E082681848024082
:1034D00006E082681748024002E08268164802400F
:1034E0001649501A8A4218D007DC92B16FF08060FA
:1034F000101810D0022809D124E0B0F5007F23D0A5
:103500000F4940180BD0B0F5003F1FD00020C0B2CB
:1035100070470220FBE70020F9E70020F7E70020D2
:10352000F5E70000006400400066004000600040D5
:10353000030000040003000800000310000100085D
:103540000001FFF70120E2E70120E0E70120DEE7CC
:10355000002908D001290BD0022903D1816841F448
:10356000000181607047816841F08001816070478F
:10357000816841F400418160704710B500EB011390
:10358000D3F8B04104F004041472002C2CD0D3F80A
:10359000B041E408546003F5D8731C6804F00204D9
:1035A00054725C6804F00F0494725C68240AD4744A
:1035B0009C68D4729C68240A14739C68240C54730D
:1035C0009C68240E9473DC68D473DC68240A147439
:1035D000DC68240C5474DB681B0E937449B10169D8
:1035E00041F02001016110BDD3F8B041640D1460B9
:1035F000D1E7C16841F02001C16010BD002904D0AD
:10360000016941F0200101617047C16841F020016A
:10361000C160704702460020002905D0012902D16F
:10362000106900F003007047D06800F00300704795
:1036300000234FF6FF72002904D001291AD0022975
:103640002AD040E0016821F0020141F0010101604F
:1036500000E0521E416801F00301012901D0002A57
:10366000F7D1406800F00300012801D000232AE0D0
:10367000012328E0016821F00301016000E0521EEF
:103680004168890701D0002AF9D14068800701D03C
:10369000002318E0012316E0016821F0010141F048
:1036A0000201016000E0521E416801F0030102299D
:1036B00001D0002AF7D1406800F00300022801D0B1
:1036C000002300E00123184670470021026822F021
:1036D000010242F002020260406800F0030002288A
:1036E00000D10121084670474FF6FF7100230268A0
:1036F00022F00202026000E0491E4268920701D5F2
:103700000029F9D14068800700D40123184670478A
:103710008069C0F30210000170478069000E704795
:103720008069C0F307407047002A03D042690A430A
:103730004261704742698A434261704702460020F5
:1037400011F4700F05D092690A40110300D00120D6
:103750007047CB0105D552680A401103F8D001200B
:1037600070470B0105D592680A401103F8D001207B
:1037700070478B0105D5D2680A401103F8D00120AB
:10378000704712690A401103FAD0012070475A4A63
:10379000914202D1002181617047C1F313028B0174
:1037A00001D5C26070474B0101D502617047090124
:1037B00001D58260704742607047024600200A428D
:1037C00000D0012070470246002053690B424FD0C1
:1037D000B1F5807F40D014DC082931D008DC012904
:1037E00028D0022929D0042942D1D0680821E4E751
:1037F000102928D0202929D0402939D11069102139
:10380000DBE7B1F5004F30D00BDCB1F5007F26D0FF
:10381000B1F5806F26D0B1F5006F29D19069702184
:10382000CBE7B1F5803F14D0B1F5003F20D150680F
:103830001021C2E790683149BFE7D0680321BCE797
:10384000D0681021B9E710690321B6E71069082193
:10385000B3E750680821B0E790690121ADE79069AE
:103860000221AAE790690421A7E750680421A4E790
:10387000704730B5082310240422B1F5007F33D0FF
:1038800011DC20292AD007DC012922D0042923D0E9
:10389000082900D1C46004E6402921D0B1F5807F19
:1038A000F9D14260FDE50025B1F5004F20D008DCDC
:1038B000B1F5806F1AD0B1F5006FECD1856142602F
:1038C000EFE5B1F5803F0DD0B1F5003FE3D14460A5
:1038D000E7E50A498160E4E5C360E2E50361E0E50C
:1038E0000461DEE54360DCE54260DAE54260D8E58C
:1038F00085614260D5E500007000F03001010100F3
:103900002DE9F043016821F001010160002101600F
:1039100041608160C160016121214161C149C14AA9
:1039200010394FF03D08904203D1C1F80880BDE83E
:10393000F083BC4A4FF474651832904201D18D6017
:10394000F5E7B84A4FF474163032904201D18E60D8
:10395000EDE7B44A4FF074674832904201D18F606E
:10396000E5E7B04BB04A6033984201D1CA60DEE768
:10397000AC4CAE4B7834A04201D1CB60D7E7DFF836
:10398000A4C2AB4C0CF1900C604501D1CC60CEE7E9
:10399000DFF890924FF03D5C09F1A809484502D14B
:1039A000C1F80CC0C3E7A349DFF88892083948453D
:1039B00002D1C1F80080BAE7DFF8788208F1180870
:1039C000404501D10D60B2E79A4D3035A84201D192
:1039D0000E60ACE7974D4835A84201D10F60A6E7CD
:1039E000944D94496035091FA84201D10A609EE7B1
:1039F000904A7832904201D10B6098E78D4A90321C
:103A0000904201D10C6092E78A4AA83290428ED14E
:103A1000C1F800C08BE730B50368874A1340CC6813
:103A20000A682243D1E905452C432243CC6922434D
:103A30000C6A22434C6A22438C6A22434C6B224319
:103A40008C6B22431A430260426922F00703D1E9DA
:103A50000B2422431A4342610A6942604A68826029
:103A60008968C16030BD0021016041608160C16032
:103A7000016141618161C161016241628162C16232
:103A80000163416381637047002904D0016841F0FC
:103A9000010101607047016821F001010160704778
:103AA000002904D0016841F40041016070470168B9
:103AB00021F4004101607047002904D0016841F001
:103AC000200101607047016821F02001016070470A
:103AD00041607047406880B27047002A04D0026895
:103AE00042F40022026003E0026822F40022026035
:103AF00001617047002904D0016841F48021016010
:103B00007047016821F4802101607047002A01D0CC
:103B100001617047C16070470146002009680903D0
:103B200000D501207047014600200968C90700D070
:103B300001207047406900F03800704702460020BD
:103B40003C4B9A4202D2374A103A01E0394A103AC5
:103B50008B0001D5526800E01268384B1A400A42C7
:103B600000D001207047334A904202D22D481038CD
:103B700001E030481038314A8B0001EA020101D5DA
:103B8000C1607047816070470B0609D522B1436957
:103B900043F08003436103E0436923F08003436102
:103BA000802905D001F01E011AB102680A430260A3
:103BB000704702688A430260704730B500241D4A8E
:103BC000904202D2174A103A01E01A4A103A1C4BAE
:103BD000194205D01E2303EAD12503682B4002E0D9
:103BE000406900F08003880001D5506800E010684B
:103BF000124A1040084201D003B10124204630BDD2
:103C00000C4A904202D20748103801E009481038A7
:103C10000A4A8B0001EA020101D5C1607047816048
:103C200070470000106002403D000020400F00205F
:103C300000003D20106402403F801CF07D0F7D0F8E
:103C40003C0F3C0F10B58D49884209D1012108462F
:103C500000F0DBFA0021BDE81040012000F0D5BAE9
:103C60008749884209D10121022000F0CEFA0021C3
:103C7000BDE81040022000F0C8BA8249884209D14C
:103C80000121042000F0C1FA0021BDE81040042009
:103C900000F0BBBA7C49884209D10121082000F01C
:103CA000B4FA0021BDE81040082000F0AEBA774910
:103CB000884209D10121102000F0A7FA0021BDE8B7
:103CC0001040102000F0A1BA7149884209D10121A9
:103CD000202000F09AFA0021BDE81040202000F0DA
:103CE00094BA6C49884209D10121402000F08DFA34
:103CF0000021BDE81040402000F087BA66498842A4
:103D000009D10121802000F080FA0021BDE8104097
:103D1000802000F07ABA614988420AD184150121D5
:103D2000204600F072FA2046BDE81040002100F065
:103D30006CBA5B4988420AD144150121204600F043
:103D400064FA2046BDE81040002100F05EBA5549F3
:103D500088420AD104150121204600F056FA204677
:103D6000BDE81040002100F050BA10BD2DE9F0412F
:103D7000002201274FF0030C07FA02F50B682B40D5
:103D8000AB422CD1066853000CFA03F4A64306603C
:103D90000E79D0F800809E4046EA080606600E794B
:103DA000012E01D0022E12D18668A64386604E797C
:103DB000D0F808809E4046EA080686604668AE4312
:103DC000466045688E799640B6B235434560C56811
:103DD000A543C560CC799C40C3681C43C460521C99
:103DE000102AC9D3BDE8F0814FF6FF7101600021B0
:103DF000017141718171C171704708B541F4803220
:103E00000092009AC261C1610099C161C169C06933
:103E1000009008BD0246002012690A4200D001202D
:103E20007047006980B270470246002052690A421A
:103E300000D001207047406980B27047018370470D
:103E400041837047002A01D0018370474183704746
:103E50004161704742694A404261704710B54B0763
:103E6000DB0E9A40C90800EB8100016A0F249C40D8
:103E7000A1430162016A1143016210BD00000240CA
:103E80000004024000080240000C02400010024002
:103E90000014024000180240001C024000200240B2
:103EA0000024024000280240FA48016841F0010164
:103EB0000160F84A0021083211600268F64B1A408E
:103EC0000260031DF54A1A60F24BF54A84331A600A
:103ED000F24A103A1B1D1A60026822F48022026026
:103EE000EC480C300160181D01607047E949002260
:103EF000891C0A7008707047024600205109012988
:103F00000CD002290DD0E3497431096802F01F0278
:103F1000012393400B4200D001207047DD4909681E
:103F2000F4E7DC4970310968F0E718B5002000902B
:103F30004FF4A0443120FFF7DFFF0099491C0091A6
:103F40000099A14201D00028F4D03120FFF7D4FF1E
:103F500008B1012018BD002018BDCE4A116821F01B
:103F6000F80141EAC00010607047CE490860704710
:103F7000C849002270310A700A70012804D0042850
:103F800001D1052008707047012008707047C649AC
:103F90000860704710B5029C41EA82114FF0FF3271
:103FA00002EB530241EA0241014341EA0460B9498C
:103FB000091D086010BDBB4908667047800140EAD2
:103FC0000170B449843108607047B649886670470B
:103FD000800140EA0160AF4940EA02708831086020
:103FE0007047B04908677047AE49C8647047A94B2D
:103FF00008331A6822F0EC620843104318607047D7
:10400000A44B08331A6822F0784208431043186022
:104010007047A04A0832116821F003010143116082
:1040200070479C480830006800F00C007047994ABF
:104030000832116821F0F001014311607047954A80
:104040000832116821F4E051014311607047914A30
:104050000832116821F4604141EAC00010607047E5
:1040600070B58C4B0833196801F00C018F4C002996
:104070001ED0661004291DD008291DD004601968BF
:1040800001F0F00109098A4A545C0168E14041608D
:104090001C6804F4E054A40A145D21FA04F484605A
:1040A0001B6803F460435B0BD25CD140C16070BD00
:1040B0000460E4E70660E2E7764A121D1168C1F386
:1040C0008055116801F03F0135B1B6FBF1F114687C
:1040D000C4F38814614305E0B4FBF1F11468C4F340
:1040E000881461431268C2F30142521C5200B1FBB2
:1040F000F2F10160C3E7C0F30121032908D1654B48
:104100000833196821F4F8126A4901401143196013
:10411000604A70321168C0F30B00014311607047B0
:1041200061494439086070475F4940390860704709
:10413000614908607047574A8C32116821F01F01AD
:10414000401E014311607047524A8C32116821F4BD
:10415000F851401E41EA0020106070474D4A8C32F1
:10416000116821F44011014311607047494A8C32B3
:10417000116821F44001014311607047454A8C32B7
:10418000116821F440310143116070474B490860C8
:104190007047404A3032002903D011680143116052
:1041A000704711688143116070473A4A34320029E0
:1041B00003D0116801431160704711688143116099
:1041C0007047344A3832002903D011680143116026
:1041D000704711688143116070472E4A40320029B0
:1041E00003D0116801431160704711688143116069
:1041F0007047284A4432002903D0116801431160F6
:1042000070471168814311607047224A10320029BB
:1042100003D0116801431160704711688143116038
:1042200070471C4A1432002903D011680143116001
:1042300070471168814311607047164A183200298F
:1042400003D0116801431160704711688143116008
:104250007047104A2032002903D0116801431160D1
:10426000704711688143116070470A4A243200295F
:1042700003D01168014311607047116881431160D8
:104280007047044A503200291AD011680143116066
:104290007047000000380240FFFFF6EA10300024AB
:1042A0000030002000004742800E47420024F40006
:1042B00028030020FFFCFF0F5C014742E01147424A
:1042C000116881431160E3E72E4A002903D0116889
:1042D00001431160DCE7116881431160D8E7294A86
:1042E000121D002903D0116801431160D0E7116845
:1042F00081431160CCE7234A0C32002903D01168B6
:1043000001431160C4E7116881431160C0E71D4A91
:104310001032002903D0116801431160B8E7116819
:1043200081431160B4E717491C31012804D00868A3
:1043300020F008000860ABE7086840F0080008605B
:10434000A6E7104A473A002903D0117801431170BB
:104350009EE71178814311709AE70A48203001687E
:1043600041F08071016093E701460020054A483A18
:1043700012680A428CD001208AE702494639087047
:1043800086E700005438024010B5F949884209D147
:1043900001210846FFF769FF0021BDE81040012018
:1043A000FFF763BFB0F1804F0CD0F249884213D1C0
:1043B00001210220FFF74DFF0021BDE8104002203F
:1043C000FFF747BF01210846FFF743FF0021BDE883
:1043D00010400120FFF73DBFE749884209D1012184
:1043E0000420FFF736FF0021BDE810400420FFF74E
:1043F00030BFE249884209D101210820FFF729FF97
:104400000021BDE810400820FFF723BFDC498842A7
:1044100009D101211020FFF71CFF0021BDE8104049
:104420001020FFF716BFD749884209D1012120206B
:10443000FFF70FFF0021BDE810402020FFF709BF64
:10444000D149884209D101210220FFF70EFF002146
:10445000BDE810400220FFF708BFCC4988420AD1CE
:1044600001210C042046FFF700FF2046BDE8104064
:104470000021FFF7FABEC64988420AD101214C0447
:104480002046FFF7F2FE2046BDE810400021FFF76E
:10449000ECBEC04988420AD101218C042046FFF7B6
:1044A000E4FE2046BDE810400021FFF7DEBEBA4919
:1044B000884209D101214020FFF7CBFE0021BDE851
:1044C00010404020FFF7C5BEB449884209D1012100
:1044D0008020FFF7BEFE0021BDE810408020FFF7DE
:1044E000B8BEAF4988420AD1841501212046FFF7A2
:1044F000B0FE2046BDE810400021FFF7AABE10BD67
:1045000030B502889A4CA04DA0420DD0A8420BD0E5
:10451000B0F1804F08D0974B984205D0964B984207
:1045200002D0964B984203D122F070034A881A4376
:10453000934B984206D0934B984203D022F4407399
:104540000A891A4302804A68C2620A880285A04228
:1045500001D0A84201D1897A01860121818230BD32
:104560004FF0FF3141600021018001814180817263
:104570007047018582827047028822F070020A43E8
:104580000280704741627047C1627047406A70475D
:10459000008D7047002904D0018841F0020101809C
:1045A0007047018821F0020101807047002904D082
:1045B000018841F0040101807047018821F0040165
:1045C00001807047002904D0018841F080010180FA
:1045D0007047018821F0800101807047028822F035
:1045E0000802028002880A4302807047028822F48F
:1045F0004072028002880A4302807047002904D07A
:10460000018841F0010101807047018821F001011A
:104610000180704730B5028C22F001020284058CC3
:104620008388028B22F0700222F003020C8814436C
:1046300025F002028D8915434A882A434C4DA84231
:1046400002D0514DA8420FD122F00805CA892A4351
:1046500022F004058A882A4323F4807323F400732C
:104660000D8A1D434B8A2B438380048389684163F1
:10467000028430BD70B5028C22F010020284028CDC
:104680008388048B24F4E04424F440760D884FF6AC
:10469000FF7404EA0525354322F020028E8904EADE
:1046A000061616434A8804EA02123243304EB042DC
:1046B00002D0354EB04217D122F08002CE8904EAF2
:1046C0000616164326F040068A8804EA0212324390
:1046D00023F4806323F400630E8A04EA86061E43F3
:1046E0004B8A04EA830333438380058389688163AB
:1046F000028470BD70B5028C22F480720284028C38
:104700008388848B24F0700424F003040D882543EF
:1047100022F400728E894FF6FF7404EA06261643CF
:104720004A8804EA02223243114EB04202D0164EA9
:10473000B04217D122F40066CA8904EA0222324349
:1047400022F480668A8804EA0222324323F48053EA
:1047500023F400530E8A04EA06161E434B8A04EA29
:1047600003133343838085838968C163028470BDEA
:10477000000001400004004000080040000C004020
:1047800000100040001400400004014000400140BF
:10479000004401400048014000180040001C004057
:1047A0000020004070B5028C22F480520284058CF7
:1047B0008288838B23F4E04323F440760C884FF601
:1047C000FF7303EA0424344325F400558E8903EA79
:1047D00006362E434D8803EA05353543FE4EB0427A
:1047E00002D0FE4EB04205D122F480460A8A03EA86
:1047F0008212324382808483896801640584B6E72B
:10480000002101804180818081608181C18101829C
:104810004182704730B500F1180301248C40058CAB
:10482000A5430584002912D0082910D0091FC1F31F
:104830004E001844016848F6FF7319400160016892
:104840004FF6FF7303EA02221143016030BD03EB10
:10485000510001684FF68F731940016001681143E0
:10486000016030BD4163704781637047C163704729
:1048700001647047028B22F070020A430283704782
:10488000028B22F4E0424FF6FF7303EA0121114349
:1048900001837047828B22F070020A438283704743
:1048A000828B22F4E0424FF6FF7303EA01211143A9
:1048B00081837047028B22F008020A43028370470B
:1048C000028B22F400624FF6FF7303EA01211143C9
:1048D00001837047828B22F008020A43828370476B
:1048E000828B22F400624FF6FF7303EA0121114329
:1048F00081837047028B22F004020A4302837047CF
:10490000028B22F480624FF6FF7303EA0121114308
:1049100001837047828B22F004020A43828370472E
:10492000828B22F480624FF6FF7303EA0121114368
:1049300081837047028B22F080020A430283704712
:10494000028BC2F30E024FF6FF7303EA01211143FB
:1049500001837047828B22F080020A438283704772
:10496000828BC2F30E024FF6FF7303EA012111435B
:1049700081837047028C22F002020A43028470474E
:10498000028C22F008020A4302847047028C22F053
:1049900020024FF6FF7303EA0111114301847047AF
:1049A000028C22F080024FF6FF7303EA01111143DB
:1049B00001847047028C22F400724FF6FF7303EA01
:1049C0000121114301847047028C22F400624FF6EA
:1049D000FF7303EA0121114301847047028C22F422
:1049E00000524FF6FF7303EA01311143018470470F
:1049F00010B501238B40048C9C430484038C8A40B3
:104A00001343038410BD10B504238B40048C9C43D6
:104A10000484038C8A401343038410BD828B22F4E8
:104A200040628283828B4FF6FF7303EA01210A43BF
:104A30008283704770B5048C24F480540484858B81
:104A4000068C4FF6FF7404EA013125F4734504EA3D
:104A500002222A4304EA0333134326F420420A4382
:104A600042F480518383018481E6828B22F00C0220
:104A70008283828B0A4382837047F0B5048C24F4CE
:104A800080740484868B058C4FF6FF7707EA012437
:104A900026F0F30607EA03111143314325F420629F
:104AA000224342F4807281830284F0BD028B22F49F
:104AB00040620283028B4FF6FF7303EA01210A432F
:104AC0000283704770B5048C24F010040484058BB5
:104AD000068C4FF6FF7404EA011125F4734504EACD
:104AE00003332B4304EA02221A4326F0A0030B43AC
:104AF00043F010010283018439E6028B22F00C029C
:104B00000283028B0A430283704770B5048C24F041
:104B100001040484058B048C25F0F3054FF6FF7621
:104B200006EA031313432B4324F00A020A4342F01C
:104B30000101038301841AE670B506460C462588F8
:104B40006188A2882389002D0BD0042D11D0082D57
:104B500017D03046FFF76EFFE1883046BDE8704061
:104B60005CE73046FFF7D1FFE1883046BDE8704092
:104B7000C3E73046FFF7A6FFE1883046BDE8704046
:104B800094E73046FFF779FFE1883046BDE8704092
:104B90006BE700210180418001228280C180018178
:104BA00070472DE9F04107460C4600250126618833
:104BB000002900D10225A288012A00D102262088DE
:104BC0002389B0B13846FFF77DFFE1883846FFF70B
:104BD0006DFF2389324603E00000014000040140DC
:104BE00029463846FFF791FFE1883846BDE8F04195
:104BF00083E73846FFF789FFE1883846FFF77DFFF6
:104C00002389324629463846FFF75CFFE18838465B
:104C1000BDE8F0414AE7406B7047806B7047C06B5E
:104C20007047006C704710B50A884B88CC881A43CF
:104C30008B8823431A430B891A434B8989891A436A
:104C40000A43A0F8442010BD0021018041808180EA
:104C5000C1800181418181817047002905D030F8F0
:104C6000441F41F400410180704730F8441FC1F3F4
:104C70000E0101807047002904D0818841F00401B1
:104C800081807047818821F004018180704700296C
:104C900004D0818841F0010181807047818821F032
:104CA000010181807047002A03D082890A438281F2
:104CB000704782898A4382817047818270470246A9
:104CC0000020128A0A4200D001207047C9430182A5
:104CD000704702460020138A0B4092890A40002B3D
:104CE00002D0002A00D001207047C94301827047DA
:104CF0001143A0F848107047002A03D082890A4364
:104D00008281704782898A4382817047002904D05A
:104D1000818841F0080181807047818821F0080175
:104D200081807047018921F0070101817047028964
:104D300022F070020A430281704700B5034618460C
:104D4000FFF7F5FF188940F00700188100BD70B526
:104D50000D4604461146602D0CD001222046FFF777
:104D6000D4FE29462046FFF7E2FF208940F00700E5
:104D70002081FCE401222046FFF7A4FEF1E730B5D4
:104D80000489E4B24FF6FF7505EA032313430B438E
:104D90002343038130BD10B504462046FFF7EFFFE3
:104DA000208920F0070040F0070020F0700040F05C
:104DB0007000208110BD10B504462046FFF7DFFFCC
:104DC000208940F48040208110BD828822F070024A
:104DD000828082880A4382807047028922F007021B
:104DE000028102890A4302817047028922F080020F
:104DF000028102890A430281704770B50589048BDC
:104E0000068C25F007050D434FF6FC410C4040F29F
:104E100001110C4326F022064FF6FF7101EA03113F
:104E200011433143058104830184A0E4002904D0A7
:104E3000818841F0800181807047818821F0800164
:104E400081807047A0F850107047000010B5F449F9
:104E5000884209D101211020FFF707FA0021BDE89F
:104E600010401020FFF701BAEE4988420AD1012113
:104E70004C042046FFF7EDF92046BDE81040002124
:104E8000FFF7E7B9E84988420AD101218C0420469E
:104E9000FFF7DFF92046BDE810400021FFF7D9B940
:104EA000E24988420AD10121CC042046FFF7D1F91A
:104EB0002046BDE810400021FFF7CBB9DC4988420D
:104EC0000AD101210C052046FFF7C3F92046BDE8B1
:104ED00010400021FFF7BDB9D649884209D1012110
:104EE0002020FFF7C2F90021BDE810402020FFF785
:104EF000BCB9D14988420AD101218C072046FFF76D
:104F0000A8F92046BDE810400021FFF7A2B9CB491F
:104F100088420AD1440501212046FFF79AF920462C
:104F2000BDE810400021FFF794B910BD7FB50446DD
:104F30000D46208A20F44051E88808432082A08949
:104F400041F20C618843A9882A8911436A89024386
:104F50001143A181A08A20F44071A8890843A0824E
:104F60006846FFF77DF8AE48844202D0B1488442DB
:104F700001D1039800E00298A189090408D500EB4B
:104F8000C00101EB001029684900B0FBF1F007E017
:104F900000EBC00101EB001029688900B0FBF1F0C3
:104FA0006422B0FBF2F109010B096FF018056B43A5
:104FB00000EB8300A3891D044FF0320307D503EBF8
:104FC000C000B0FBF2F000F00700084306E003EB7E
:104FD0000010B0FBF2F000F00F00084320817FBD0D
:104FE0004FF41651016000218180C18001810C22A3
:104FF00042818181704710B5028A22F470630A8869
:105000004C8822438C88C9880C4322431A4302826D
:1050100010BD0021018041808180C180704700293E
:1050200004D0818941F4005181817047818921F444
:10503000005181817047028B02F47F420283028B10
:105040000A4302837047002904D0818941F400415A
:10505000818170478189C1F30E01818170470029E8
:1050600004D0818A41F4006181827047818A21F4F1
:10507000006181827047C1F3080181807047808898
:10508000C0F308007047028A22F00F020282028AEF
:105090000A4302827047002904D0818941F002014D
:1050A00081817047818921F0020181817047828965
:1050B00022F40062828182890A4382817047028AD7
:1050C00022F020020282028A0A43028270470029EB
:1050D00004D0018A41F4804101827047018A21F4A1
:1050E000804101827047818941F0010181817047CF
:1050F000002904D0818A41F0080181827047818AA9
:1051000021F0080181827047028BD2B20283028BA8
:1051100042EA012101837047002904D0818A41F0CD
:10512000200181827047818A21F0200181827047AD
:10513000002904D0818A41F0100181827047818A60
:1051400021F0100181827047828A22F0040282825B
:10515000828A0A4382827047002904D0818A41F002
:10516000020181827047818A21F0020181827047A9
:10517000002A03D0828A0A4382827047828A8A4345
:105180008282704710B540F66A13C1F3421301F0F2
:105190001F040121A140012B07D0022B07D014309E
:1051A0003AB102680A43026010BD0C30F8E71030D3
:1051B000F6E702688A43026010BD024600201288AA
:1051C0000A4200D0012070478A05C9430180704718
:1051D00070B5002440F66A12C1F3421301F01F05B6
:1051E000012606FA05F2012B0CD0022B0DD0838A82
:1051F0001340090A8E40008830400BB100B10124F1
:10520000204670BD83891340F3E7038A1340F0E71B
:1052100040F66A120A0A01219140C9430180704791
:10522000001001400044004000480040004C004095
:10523000005000400014014000780040007C004015
:1052400030B585B03E4D2868401C28603D48FBF7CE
:105250001DF83C488030FBF719F8FBF7FBF903F029
:105260000EFF2878C00701D1FCF7E1FE3649286817
:105270000840012801D1FCF764FE2868052190FB55
:10528000F1F201FB1200E0B9304810F8231B0A09C3
:105290002F49838A0C78817CCDE90342CDE9013125
:1052A000817FC1F340010091C16CC37C00EE901A74
:1052B0002849028B91ED040A418BB0F82900FBF7D5
:1052C000C1FA28680A2190FBF1F201FB12000928BB
:1052D00003D121492148FCF781FD2868642490FB13
:1052E000F4F104FB110008B9FBF7F6FA286890FB0B
:1052F000F4F104FB1100322801D1FCF7F1FC28681D
:105300004FF47A7190FBF1F201FB1201144C19B9C0
:1053100001212046FEF792FD29684FF4FA6291FBC5
:10532000F2F302FB1311002906D105B02046BDE8B7
:1053300030400121FEF784BD05B030BD00F012B849
:1053400038030020B82A002001000080DC2B002058
:10535000490300201C000020D1020020006800400A
:10536000000802402DE9F0472DED068B4FF4246133
:10537000FC4808F09EFE9FEDFC0AFA4C84ED670A9B
:10538000B2EE001A9FEDF98A4FF416759FEDF80AF8
:10539000F0EE480AC8232A46032104F20C7007F0F5
:1053A000ABFCB3EE0E1AF0EE480ADFEDF28A44F6DB
:1053B00020664FF47A6704F55370B0EE680A3346FE
:1053C0003A460321804607F097FC04F50A70B3EED5
:1053D0000E1AF0EE480AB0EE680A33463A46032148
:1053E000814607F089FCB2EE041ADFEDE38AF0EEA5
:1053F000680A9FEDE29A33463A46B0EE490A032125
:1054000004F51E7007F078FCDFEDDD9AF0EE480A37
:10541000B0EE691A9FEDDBAA33463A46B0EE4A0A6F
:105420000321484607F068FCB2EE041AF0EE680A61
:10543000B0EE490A33463A46032104F5677007F097
:105440005BFCB0EE691AF0EE480AB0EE4A0A334649
:105450003A460321404607F04FFC84ED588A84ED1C
:10546000568A84ED598AB7EE001AF0EE480A9FED8D
:10547000C60A03232322194604F57B7007F03CFC7F
:105480009FEDC21AF0EE480A9FEDC19A0323322223
:10549000B0EE490A194604F23C4007F02DFCB0EE8C
:1054A000681AF0EE480A9FEDBB0A01231A46032151
:1054B00004F2DC4007F020FCB7EE001AF0EE480AD8
:1054C000B0EE000A0A231422032104F27C5007F0F4
:1054D00013FCB2EE041AF0EE680AB0EE490A0A2391
:1054E0002A46032104F22C5007F006FC0A23B0EEF2
:1054F000001AF0EE480AB0EE0C0A1A46032104F234
:105500008C4007F0F9FB0322B7EE001AF0EE480AD0
:10551000B2EE000AC823114604F2CC5007F0ECFBAF
:10552000B0EE481AF0EE480AB1EE040AC8230A2287
:10553000032104F21C6007F0DFFBB7EE001AF0EE67
:10554000480AB2EE000AC8230622032104F26C6066
:1055500007F0D2FBB1EE041AF0EE480AB6EE000AEC
:10556000C823FA10032104F2BC6007F0C5FBB2EEB9
:10557000041AF0EE480ADFED888AC8231A46B0EE16
:10558000680A032104F2FC7007F0B6FBC823B2EEF0
:10559000041AF0EE480AB0EE680A1A46032104F62F
:1055A0004C0007F0A9FBB0EE481AF0EE480AB3EE43
:1055B0000E0AC8234FF4AF72032104F25C7007F0A7
:1055C0009BFBB0EE481AF0EE480AB7EE000A022341
:1055D0000122032104F2AC7007F08EFBB0EE481AF2
:1055E000DFED6E8AF0EE680A9FED6D9A02230C22C1
:1055F000B0EE490A032104F63C1007F07DFBB0EE43
:10560000481AF0EE680AB0EE490A02230C22032180
:1056100004F68C1007F070FBB0EE481AF0EE480A62
:10562000B3EE040AC8233222032104F69C0007F0DB
:1056300063FBB0EE481AF0EE480AB3EE040AC82342
:105640003222032104F6EC0007F056FB554C0121F1
:105650002046FDF7CDF802212046FDF7C9F80321C9
:105660002046FDF7C5F8BDEC068B20460421BDE8B9
:10567000F047FDF7BDB810B52DED068BB0EE408AB2
:10568000F0EE418AB0EE619AF0EE429AB0EE62AA74
:1056900010EE900A0BF0FAFF434CC4E9020118EE39
:1056A000900A0BF0F3FFC4E9040119EE900A0BF025
:1056B000EDFFC4E9080118EE100A0BF0E7FFC4E99A
:1056C000000119EE100A0BF0E1FFC4E906011AEE21
:1056D000100A0BF0DBFFC4E90A01BDEC068B10BD1C
:1056E00010B52DED048BB0EE608AF0EE418A1D4CB2
:1056F00084ED5E0A94ED7F1AF0EE400A04F50A701C
:10570000B0EE410A07F095F884ED850AD4ED5E0A03
:1057100094EDC80A04F5537007F08BF884EDCE0AB7
:1057200038EEC80AB6EE009AD4ED791A94ED7A1ADA
:1057300060EE090A94ED850A04F5DA7006F031FD91
:1057400038EE880AD4EDC21A94EDC31A04F5367007
:1057500060EE090A94EDCE0ABDEC048BBDE8104062
:1057600006F01FBD38350020CDCCCC3D0000000038
:1057700000009242000048420AD7233C00007A45CC
:10578000000048430000FA44CDCC1441CDCC4C3F3E
:1057900000000C426F12033C0000C8426F12833AB3
:1057A000CDCCCC3E00640040483F002010B52DED2C
:1057B000028B9FEDFE8A30EE080A10EE100A0BF005
:1057C00065FF41EC100B9FEDFA1B0AF0CBF951EC91
:1057D000100B0BF07FF800EE100AB5EEC00AF1EEE8
:1057E00010FA01D230EE080ABDEC028B10BD10B5E4
:1057F0002DED028BB0EE408A18EE100A05F0D2FFB4
:1058000020B918EE100A05F0D6FF10B11FED290AD5
:10581000EAE718EE100A0BF039FF41EC100B9FED90
:10582000E41B0AF09FF951EC100B0BF053F800EE5B
:10583000100AE14910EE100ADFEDDC0A884202DDB1
:1058400030EE600AD0E710EE100ADC498842CBD96E
:1058500030EE200AC8E770B52DED048BD84C94EDDE
:105860002E0B51EC100B0BF035F894ED2C0B08EED1
:10587000100A51EC100B0BF02DF8D24C08EE900AE8
:1058800094ED2E0B51EC100B0BF024F894ED2C0B37
:1058900009EE100A51EC100B0BF01CF800EE100A88
:1058A000F0EE481AB0EE681AF0EE490AC64806F063
:1058B0001DFBC64C94ED2E0B51EC100B0BF00AF8AF
:1058C00000EE100AB1EE408A94ED2C0B51EC100B57
:1058D0000BF000F800EE100ABD4CF1EE408A94ED9A
:1058E0002E0B51EC100B0AF0F5FF00EE100AB1EE92
:1058F000409A94ED2C0B51EC100B0AF0EBFF00EEEC
:10590000100AF0EE481AB0EE681AB1EE400AF0EE56
:10591000490AB04806F0EAFAAF4C94ED7A0AFFF76C
:1059200066FF94EDC30AFFF762FF94ED820A9FEDD4
:10593000AB9A30EE490AFFF739FFB0EE408A94ED9A
:10594000CB0A30EE490AFFF731FF38EE000AF6EED7
:10595000009A20EE290AD4ED830A94EDCC1A70EE59
:10596000C10A20EEA98A5FED7F8AF1EE040A04F2F3
:10597000AC70B0EE681A07F023F8F0EE400AB0EE13
:10598000480A04F25C7006F054FFB0EE408A94EDD1
:10599000CB0AD4ED820A04F23C40054630EE600AA0
:1059A000F0EE680A06F045FFF0EE400A94EDCC0AEE
:1059B00094ED831A04F57B70064630EE410A06F03A
:1059C00038FFF0EE400AB0EE481A9FED850AFFF767
:1059D00087FE94EDB70A94ED6E1AD4ED6D0AF1EEE0
:1059E000401A94EDB60AF0EE682AB0EE682AB1EEDD
:1059F000400AFFF740FE0120207194ED820AD4EDA9
:105A0000CB0AB0EE498A30EE200A10EE298A18EE51
:105A1000100A0BF03BFE41EC100B0AF099F89FEDD9
:105A2000711B51EC100B53EC112B0BF037FC53D8BE
:105A300094ED7F0AD4EDC80A30EE600A10EE100A29
:105A40000BF024FE41EC100B0AF082F89FED671B6F
:105A500051EC100B53EC112B0BF03EFA3CD2F0EE54
:105A6000680AB0EE480A04F20C7006F0E2FEB0EEEE
:105A7000408A94EDCB0AD4ED820A284630EE600AC3
:105A8000F0EE680A06F0D5FEF0EE400A94EDCC0A7E
:105A900094ED831A304630EE410A06F0CAFEF0EE6D
:105AA000400AB0EE481A1FEDD00AFFF719FE94ED38
:105AB000B70A94ED6E1AD4ED6D0AF1EE401A94ED2A
:105AC000B60AF0EE682AB0EE682ABDEC048BB1EE9F
:105AD000400ABDE87040CEE5BDEC048B70BD10B54A
